{
  "_format": "hh-sol-artifact-1",
  "contractName": "Greeter",
  "sourceName": "contracts/Greeter.sol",
  "abi": [
    {
      "inputs": [],
      "name": "read",
      "outputs": [
        {
          "internalType": "string",
          "name": "",
          "type": "string"
        }
      ],
      "stateMutability": "view",
      "type": "function"
    },
    {
      "inputs": [
        {
          "internalType": "string",
          "name": "newMessage",
          "type": "string"
        }
      ],
      "name": "write",
      "outputs": [],
      "stateMutability": "nonpayable",
      "type": "function"
    }
  ],
  "bytecode": "0x60c0604052600660809081526548656c6c6f2160d01b60a05260009061002590826100d7565b5034801561003257600080fd5b50610196565b634e487b7160e01b600052604160045260246000fd5b600181811c9082168061006257607f821691505b60208210810361008257634e487b7160e01b600052602260045260246000fd5b50919050565b601f8211156100d257600081815260208120601f850160051c810160208610156100af5750805b601f850160051c820191505b818110156100ce578281556001016100bb565b5050505b505050565b81516001600160401b038111156100f0576100f0610038565b610104816100fe845461004e565b84610088565b602080601f83116001811461013957600084156101215750858301515b600019600386901b1c1916600185901b1785556100ce565b600085815260208120601f198616915b8281101561016857888601518255948401946001909101908401610149565b50858210156101865787850151600019600388901b60f8161c191681555b5050505050600190811b01905550565b6103a4806101a56000396000f3fe608060405234801561001057600080fd5b50600436106100365760003560e01c806357de26a41461003b578063ebaac77114610059575b600080fd5b61004361006e565b6040516100509190610110565b60405180910390f35b61006c610067366004610174565b610100565b005b60606000805461007d90610225565b80601f01602080910402602001604051908101604052809291908181526020018280546100a990610225565b80156100f65780601f106100cb576101008083540402835291602001916100f6565b820191906000526020600020905b8154815290600101906020018083116100d957829003601f168201915b5050505050905090565b600061010c82826102ae565b5050565b600060208083528351808285015260005b8181101561013d57858101830151858201604001528201610121565b506000604082860101526040601f19601f8301168501019250505092915050565b634e487b7160e01b600052604160045260246000fd5b60006020828403121561018657600080fd5b813567ffffffffffffffff8082111561019e57600080fd5b818401915084601f8301126101b257600080fd5b8135818111156101c4576101c461015e565b604051601f8201601f19908116603f011681019083821181831017156101ec576101ec61015e565b8160405282815287602084870101111561020557600080fd5b826020860160208301376000928101602001929092525095945050505050565b600181811c9082168061023957607f821691505b60208210810361025957634e487b7160e01b600052602260045260246000fd5b50919050565b601f8211156102a957600081815260208120601f850160051c810160208610156102865750805b601f850160051c820191505b818110156102a557828155600101610292565b5050505b505050565b815167ffffffffffffffff8111156102c8576102c861015e565b6102dc816102d68454610225565b8461025f565b602080601f83116001811461031157600084156102f95750858301515b600019600386901b1c1916600185901b1785556102a5565b600085815260208120601f198616915b8281101561034057888601518255948401946001909101908401610321565b508582101561035e5787850151600019600388901b60f8161c191681555b5050505050600190811b0190555056fea264697066735822122029fcc88509a7db823afbe5f8fcbe7d5dd9af506b929909ae7f463587e29ec20264736f6c63430008110033",
  "linkReferences": {},
  "deployedLinkReferences": {}
}